{
  "contractName": "HagoromoV1",
  "abi": [
    {
      "anonymous": false,
      "inputs": [
        {
          "indexed": true,
          "internalType": "address",
          "name": "previousOwner",
          "type": "address"
        },
        {
          "indexed": true,
          "internalType": "address",
          "name": "newOwner",
          "type": "address"
        }
      ],
      "name": "OwnershipTransferred",
      "type": "event"
    },
    {
      "anonymous": false,
      "inputs": [
        {
          "indexed": false,
          "internalType": "uint256",
          "name": "propNonce",
          "type": "uint256"
        },
        {
          "indexed": false,
          "internalType": "uint256",
          "name": "numTokens",
          "type": "uint256"
        },
        {
          "indexed": true,
          "internalType": "address",
          "name": "fundRaiser",
          "type": "address"
        }
      ],
      "name": "_FundRaising",
      "type": "event"
    },
    {
      "anonymous": false,
      "inputs": [
        {
          "indexed": false,
          "internalType": "uint256",
          "name": "numTokens",
          "type": "uint256"
        },
        {
          "indexed": true,
          "internalType": "address",
          "name": "fundRaiser",
          "type": "address"
        }
      ],
      "name": "_FundingRightsGranted",
      "type": "event"
    },
    {
      "anonymous": false,
      "inputs": [
        {
          "indexed": false,
          "internalType": "uint256",
          "name": "numTokens",
          "type": "uint256"
        },
        {
          "indexed": true,
          "internalType": "address",
          "name": "fundRaiser",
          "type": "address"
        }
      ],
      "name": "_FundingRightsWithdrawn",
      "type": "event"
    },
    {
      "anonymous": false,
      "inputs": [
        {
          "indexed": false,
          "internalType": "uint256",
          "name": "endDate",
          "type": "uint256"
        },
        {
          "indexed": false,
          "internalType": "uint256",
          "name": "requiredFund",
          "type": "uint256"
        },
        {
          "indexed": false,
          "internalType": "uint256",
          "name": "propNonce",
          "type": "uint256"
        },
        {
          "indexed": true,
          "internalType": "address",
          "name": "creator",
          "type": "address"
        }
      ],
      "name": "_ProposalInitialized",
      "type": "event"
    },
    {
      "anonymous": false,
      "inputs": [
        {
          "indexed": false,
          "internalType": "uint256",
          "name": "propNonce",
          "type": "uint256"
        },
        {
          "indexed": true,
          "internalType": "address",
          "name": "fundRaiser",
          "type": "address"
        }
      ],
      "name": "_TokensRescued",
      "type": "event"
    },
    {
      "anonymous": false,
      "inputs": [
        {
          "indexed": false,
          "internalType": "uint256",
          "name": "propNonce",
          "type": "uint256"
        },
        {
          "indexed": true,
          "internalType": "address",
          "name": "creator",
          "type": "address"
        }
      ],
      "name": "_TokensWithdrawn",
      "type": "event"
    },
    {
      "inputs": [],
      "name": "owner",
      "outputs": [
        {
          "internalType": "address",
          "name": "",
          "type": "address"
        }
      ],
      "stateMutability": "view",
      "type": "function",
      "constant": true
    },
    {
      "inputs": [],
      "name": "renounceOwnership",
      "outputs": [],
      "stateMutability": "nonpayable",
      "type": "function"
    },
    {
      "inputs": [],
      "name": "token",
      "outputs": [
        {
          "internalType": "contract IERC20",
          "name": "",
          "type": "address"
        }
      ],
      "stateMutability": "view",
      "type": "function",
      "constant": true
    },
    {
      "inputs": [
        {
          "internalType": "address",
          "name": "newOwner",
          "type": "address"
        }
      ],
      "name": "transferOwnership",
      "outputs": [],
      "stateMutability": "nonpayable",
      "type": "function"
    },
    {
      "inputs": [
        {
          "internalType": "address",
          "name": "_token",
          "type": "address"
        }
      ],
      "name": "init",
      "outputs": [],
      "stateMutability": "nonpayable",
      "type": "function"
    },
    {
      "inputs": [
        {
          "internalType": "uint256",
          "name": "_propNonce",
          "type": "uint256"
        }
      ],
      "name": "pendingFund",
      "outputs": [
        {
          "internalType": "uint256",
          "name": "",
          "type": "uint256"
        }
      ],
      "stateMutability": "view",
      "type": "function",
      "constant": true
    },
    {
      "inputs": [],
      "name": "tokenBalance",
      "outputs": [
        {
          "internalType": "uint256",
          "name": "",
          "type": "uint256"
        }
      ],
      "stateMutability": "view",
      "type": "function",
      "constant": true
    },
    {
      "inputs": [
        {
          "internalType": "uint256",
          "name": "_propNonce",
          "type": "uint256"
        }
      ],
      "name": "getProposal",
      "outputs": [
        {
          "internalType": "string",
          "name": "",
          "type": "string"
        },
        {
          "internalType": "string",
          "name": "",
          "type": "string"
        },
        {
          "internalType": "uint256",
          "name": "",
          "type": "uint256"
        },
        {
          "internalType": "uint256",
          "name": "",
          "type": "uint256"
        },
        {
          "internalType": "uint256",
          "name": "",
          "type": "uint256"
        },
        {
          "internalType": "bool",
          "name": "",
          "type": "bool"
        },
        {
          "internalType": "bool",
          "name": "",
          "type": "bool"
        }
      ],
      "stateMutability": "view",
      "type": "function",
      "constant": true
    },
    {
      "inputs": [],
      "name": "getPropNonce",
      "outputs": [
        {
          "internalType": "uint256",
          "name": "",
          "type": "uint256"
        }
      ],
      "stateMutability": "view",
      "type": "function",
      "constant": true
    },
    {
      "inputs": [
        {
          "internalType": "uint256",
          "name": "_numTokens",
          "type": "uint256"
        }
      ],
      "name": "requestFundingRights",
      "outputs": [
        {
          "internalType": "bool",
          "name": "",
          "type": "bool"
        }
      ],
      "stateMutability": "nonpayable",
      "type": "function"
    },
    {
      "inputs": [
        {
          "internalType": "uint256",
          "name": "_numTokens",
          "type": "uint256"
        }
      ],
      "name": "withdrawFundingRights",
      "outputs": [
        {
          "internalType": "bool",
          "name": "",
          "type": "bool"
        }
      ],
      "stateMutability": "nonpayable",
      "type": "function"
    },
    {
      "inputs": [
        {
          "internalType": "uint256",
          "name": "_propNonce",
          "type": "uint256"
        }
      ],
      "name": "withdrawTokens",
      "outputs": [
        {
          "internalType": "bool",
          "name": "",
          "type": "bool"
        }
      ],
      "stateMutability": "nonpayable",
      "type": "function"
    },
    {
      "inputs": [
        {
          "internalType": "uint256",
          "name": "_propNonce",
          "type": "uint256"
        }
      ],
      "name": "rescueTokens",
      "outputs": [
        {
          "internalType": "bool",
          "name": "",
          "type": "bool"
        }
      ],
      "stateMutability": "nonpayable",
      "type": "function"
    },
    {
      "inputs": [
        {
          "internalType": "uint256",
          "name": "_propNonce",
          "type": "uint256"
        },
        {
          "internalType": "uint256",
          "name": "_funding",
          "type": "uint256"
        }
      ],
      "name": "fundRaising",
      "outputs": [
        {
          "internalType": "bool",
          "name": "",
          "type": "bool"
        }
      ],
      "stateMutability": "nonpayable",
      "type": "function"
    },
    {
      "inputs": [
        {
          "internalType": "string",
          "name": "_description",
          "type": "string"
        },
        {
          "internalType": "string",
          "name": "_url",
          "type": "string"
        },
        {
          "internalType": "uint256",
          "name": "_duration",
          "type": "uint256"
        },
        {
          "internalType": "uint256",
          "name": "_requiredFund",
          "type": "uint256"
        }
      ],
      "name": "initializeProposal",
      "outputs": [
        {
          "internalType": "uint256",
          "name": "",
          "type": "uint256"
        }
      ],
      "stateMutability": "nonpayable",
      "type": "function"
    },
    {
      "inputs": [
        {
          "internalType": "uint256",
          "name": "_endDate",
          "type": "uint256"
        }
      ],
      "name": "isExpired",
      "outputs": [
        {
          "internalType": "bool",
          "name": "expired",
          "type": "bool"
        }
      ],
      "stateMutability": "view",
      "type": "function",
      "constant": true
    },
    {
      "inputs": [],
      "name": "destruct",
      "outputs": [],
      "stateMutability": "nonpayable",
      "type": "function"
    }
  ],
  "bytecode": "0x608060405234801561001057600080fd5b5060006100216100c460201b60201c565b9050806000806101000a81548173ffffffffffffffffffffffffffffffffffffffff021916908373ffffffffffffffffffffffffffffffffffffffff1602179055508073ffffffffffffffffffffffffffffffffffffffff16600073ffffffffffffffffffffffffffffffffffffffff167f8be0079c531659141344cd1fd0a4f28419497f9722a3daafe3b4186f6b6457e060405160405180910390a3506100cc565b600033905090565b6129e4806100db6000396000f3fe608060405234801561001057600080fd5b506004361061010b5760003560e01c8063715018a6116100a2578063c541424711610071578063c5414247146102ba578063c7f758a8146102ea578063d9548e5314610320578063f2fde38b14610350578063fc0c546a1461036c5761010b565b8063715018a6146102445780638da5cb5b1461024e578063976035601461026c5780639e1a4d191461029c5761010b565b8063315a095d116100de578063315a095d146101965780634112db6b146101c657806346b18305146101e45780636f3294c9146102145761010b565b806319ab453c146101105780631af759681461012c578063261cda2c1461015c5780632b68b9c61461018c575b600080fd5b61012a60048036038101906101259190611ee7565b61038a565b005b61014660048036038101906101419190611fcc565b610568565b6040516101539190612754565b60405180910390f35b6101766004803603810190610171919061201e565b6105c2565b6040516101839190612541565b60405180910390f35b61019461092f565b005b6101b060048036038101906101ab9190611fcc565b610a10565b6040516101bd9190612541565b60405180910390f35b6101ce610c83565b6040516101db9190612754565b60405180910390f35b6101fe60048036038101906101f99190611fcc565b610c8d565b60405161020b9190612541565b60405180910390f35b61022e60048036038101906102299190611f39565b610f22565b60405161023b9190612754565b60405180910390f35b61024c61110c565b005b610256611292565b6040516102639190612482565b60405180910390f35b61028660048036038101906102819190611fcc565b6112bb565b6040516102939190612541565b60405180910390f35b6102a461160c565b6040516102b19190612754565b60405180910390f35b6102d460048036038101906102cf9190611fcc565b611653565b6040516102e19190612541565b60405180910390f35b61030460048036038101906102ff9190611fcc565b61187b565b6040516103179796959493929190612577565b60405180910390f35b61033a60048036038101906103359190611fcc565b611a29565b6040516103479190612541565b60405180910390f35b61036a60048036038101906103659190611ee7565b611a36565b005b610374611c41565b604051610381919061255c565b60405180910390f35b610392611c67565b73ffffffffffffffffffffffffffffffffffffffff1660008054906101000a900473ffffffffffffffffffffffffffffffffffffffff1673ffffffffffffffffffffffffffffffffffffffff1614610452576040517f08c379a00000000000000000000000000000000000000000000000000000000081526004018080602001828103825260208152602001807f4f776e61626c653a2063616c6c6572206973206e6f7420746865206f776e657281525060200191505060405180910390fd5b600073ffffffffffffffffffffffffffffffffffffffff168173ffffffffffffffffffffffffffffffffffffffff16141580156104dd5750600073ffffffffffffffffffffffffffffffffffffffff16600560009054906101000a900473ffffffffffffffffffffffffffffffffffffffff1673ffffffffffffffffffffffffffffffffffffffff16145b61051c576040517f08c379a000000000000000000000000000000000000000000000000000000000815260040161051390612714565b60405180910390fd5b80600560006101000a81548173ffffffffffffffffffffffffffffffffffffffff021916908373ffffffffffffffffffffffffffffffffffffffff160217905550600060018190555050565b60006004600083815260200190815260200160002060003373ffffffffffffffffffffffffffffffffffffffff1673ffffffffffffffffffffffffffffffffffffffff168152602001908152602001600020549050919050565b6000806002600085815260200190815260200160002090506105e78160030154611a29565b15610627576040517f08c379a000000000000000000000000000000000000000000000000000000000815260040161061e90612694565b60405180910390fd5b3373ffffffffffffffffffffffffffffffffffffffff168160020160009054906101000a900473ffffffffffffffffffffffffffffffffffffffff1673ffffffffffffffffffffffffffffffffffffffff1614156106ba576040517f08c379a00000000000000000000000000000000000000000000000000000000081526004016106b1906126d4565b60405180910390fd5b82600360003373ffffffffffffffffffffffffffffffffffffffff1673ffffffffffffffffffffffffffffffffffffffff16815260200190815260200160002054101561073c576040517f08c379a000000000000000000000000000000000000000000000000000000000815260040161073390612654565b60405180910390fd5b610753838260040154611c6f90919063ffffffff16565b81600401819055506107ad83600360003373ffffffffffffffffffffffffffffffffffffffff1673ffffffffffffffffffffffffffffffffffffffff16815260200190815260200160002054611cf790919063ffffffff16565b600360003373ffffffffffffffffffffffffffffffffffffffff1673ffffffffffffffffffffffffffffffffffffffff16815260200190815260200160002081905550610853836004600087815260200190815260200160002060003373ffffffffffffffffffffffffffffffffffffffff1673ffffffffffffffffffffffffffffffffffffffff16815260200190815260200160002054611c6f90919063ffffffff16565b6004600086815260200190815260200160002060003373ffffffffffffffffffffffffffffffffffffffff1673ffffffffffffffffffffffffffffffffffffffff1681526020019081526020016000208190555080600501548160040154106108d45760018160060160006101000a81548160ff0219169083151502179055505b3373ffffffffffffffffffffffffffffffffffffffff167f8707269f19725fea13844afca380b41d068109924063050d9bbddb04ff584880858560405161091c92919061276f565b60405180910390a2600191505092915050565b610937611c67565b73ffffffffffffffffffffffffffffffffffffffff1660008054906101000a900473ffffffffffffffffffffffffffffffffffffffff1673ffffffffffffffffffffffffffffffffffffffff16146109f7576040517f08c379a00000000000000000000000000000000000000000000000000000000081526004018080602001828103825260208152602001807f4f776e61626c653a2063616c6c6572206973206e6f7420746865206f776e657281525060200191505060405180910390fd5b3373ffffffffffffffffffffffffffffffffffffffff16ff5b600080600260008481526020019081526020016000209050610a358160030154611a29565b610a74576040517f08c379a0000000000000000000000000000000000000000000000000000000008152600401610a6b90612734565b60405180910390fd5b600115158160060160009054906101000a900460ff16151514610acc576040517f08c379a0000000000000000000000000000000000000000000000000000000008152600401610ac3906126f4565b60405180910390fd5b600015158160060160019054906101000a900460ff16151514610b24576040517f08c379a0000000000000000000000000000000000000000000000000000000008152600401610b1b906126b4565b60405180910390fd5b600560009054906101000a900473ffffffffffffffffffffffffffffffffffffffff1673ffffffffffffffffffffffffffffffffffffffff1663a9059cbb8260020160009054906101000a900473ffffffffffffffffffffffffffffffffffffffff1683600401546040518363ffffffff1660e01b8152600401610ba9929190612518565b602060405180830381600087803b158015610bc357600080fd5b505af1158015610bd7573d6000803e3d6000fd5b505050506040513d601f19601f82011682018060405250810190610bfb9190611f10565b610c0457600080fd5b60018160060160016101000a81548160ff021916908315150217905550600081600401819055503373ffffffffffffffffffffffffffffffffffffffff167f17f7d3db334658cdd14722182c5d9af29d0d1514f1c1b7b1daee0e309bea90b984604051610c719190612754565b60405180910390a26001915050919050565b6000600154905090565b600081600560009054906101000a900473ffffffffffffffffffffffffffffffffffffffff1673ffffffffffffffffffffffffffffffffffffffff166370a08231336040518263ffffffff1660e01b8152600401610ceb919061249d565b60206040518083038186803b158015610d0357600080fd5b505afa158015610d17573d6000803e3d6000fd5b505050506040513d601f19601f82011682018060405250810190610d3b9190611ff5565b1015610d7c576040517f08c379a0000000000000000000000000000000000000000000000000000000008152600401610d73906125f4565b60405180910390fd5b610dce82600360003373ffffffffffffffffffffffffffffffffffffffff1673ffffffffffffffffffffffffffffffffffffffff16815260200190815260200160002054611c6f90919063ffffffff16565b600360003373ffffffffffffffffffffffffffffffffffffffff1673ffffffffffffffffffffffffffffffffffffffff16815260200190815260200160002081905550600560009054906101000a900473ffffffffffffffffffffffffffffffffffffffff1673ffffffffffffffffffffffffffffffffffffffff166323b872dd3330856040518463ffffffff1660e01b8152600401610e70939291906124b8565b602060405180830381600087803b158015610e8a57600080fd5b505af1158015610e9e573d6000803e3d6000fd5b505050506040513d601f19601f82011682018060405250810190610ec29190611f10565b610ecb57600080fd5b3373ffffffffffffffffffffffffffffffffffffffff167f1156aa27a9687051a6d3af37b75e5c381097899b5656cf8ee406120a1b588b4883604051610f119190612754565b60405180910390a260019050919050565b6000610f3960018054611c6f90919063ffffffff16565b60018190555060003390506000610f598542611c6f90919063ffffffff16565b90506040518061010001604052808881526020018781526020018373ffffffffffffffffffffffffffffffffffffffff16815260200182815260200160008152602001858152602001600015158152602001600015158152506002600060015481526020019081526020016000206000820151816000019080519060200190610fe3929190611d80565b506020820151816001019080519060200190611000929190611d80565b5060408201518160020160006101000a81548173ffffffffffffffffffffffffffffffffffffffff021916908373ffffffffffffffffffffffffffffffffffffffff160217905550606082015181600301556080820151816004015560a0820151816005015560c08201518160060160006101000a81548160ff02191690831515021790555060e08201518160060160016101000a81548160ff0219169083151502179055509050503373ffffffffffffffffffffffffffffffffffffffff167f7b0966ea760fe5f0917aebdb31b28623ad178db72564ce9390bd5ba176fc55db82866001546040516110f593929190612798565b60405180910390a260015492505050949350505050565b611114611c67565b73ffffffffffffffffffffffffffffffffffffffff1660008054906101000a900473ffffffffffffffffffffffffffffffffffffffff1673ffffffffffffffffffffffffffffffffffffffff16146111d4576040517f08c379a00000000000000000000000000000000000000000000000000000000081526004018080602001828103825260208152602001807f4f776e61626c653a2063616c6c6572206973206e6f7420746865206f776e657281525060200191505060405180910390fd5b600073ffffffffffffffffffffffffffffffffffffffff1660008054906101000a900473ffffffffffffffffffffffffffffffffffffffff1673ffffffffffffffffffffffffffffffffffffffff167f8be0079c531659141344cd1fd0a4f28419497f9722a3daafe3b4186f6b6457e060405160405180910390a360008060006101000a81548173ffffffffffffffffffffffffffffffffffffffff021916908373ffffffffffffffffffffffffffffffffffffffff160217905550565b60008060009054906101000a900473ffffffffffffffffffffffffffffffffffffffff16905090565b6000806002600084815260200190815260200160002090506112e08160030154611a29565b61131f576040517f08c379a000000000000000000000000000000000000000000000000000000000815260040161131690612734565b60405180910390fd5b600015158160060160009054906101000a900460ff16151514611377576040517f08c379a000000000000000000000000000000000000000000000000000000000815260040161136e90612674565b60405180910390fd5b60006004600085815260200190815260200160002060003373ffffffffffffffffffffffffffffffffffffffff1673ffffffffffffffffffffffffffffffffffffffff168152602001908152602001600020541161140a576040517f08c379a000000000000000000000000000000000000000000000000000000000815260040161140190612634565b60405180910390fd5b6114ac6004600085815260200190815260200160002060003373ffffffffffffffffffffffffffffffffffffffff1673ffffffffffffffffffffffffffffffffffffffff16815260200190815260200160002054600360003373ffffffffffffffffffffffffffffffffffffffff1673ffffffffffffffffffffffffffffffffffffffff16815260200190815260200160002054611c6f90919063ffffffff16565b600360003373ffffffffffffffffffffffffffffffffffffffff1673ffffffffffffffffffffffffffffffffffffffff168152602001908152602001600020819055506115566004600085815260200190815260200160002060003373ffffffffffffffffffffffffffffffffffffffff1673ffffffffffffffffffffffffffffffffffffffff168152602001908152602001600020548260040154611cf790919063ffffffff16565b816004018190555060006004600085815260200190815260200160002060003373ffffffffffffffffffffffffffffffffffffffff1673ffffffffffffffffffffffffffffffffffffffff168152602001908152602001600020819055503373ffffffffffffffffffffffffffffffffffffffff167f402507661c8c8cb90e0a796450b8bdd28b6c516f05279c0cd29e84c344e1699a846040516115fa9190612754565b60405180910390a26001915050919050565b6000600360003373ffffffffffffffffffffffffffffffffffffffff1673ffffffffffffffffffffffffffffffffffffffff16815260200190815260200160002054905090565b600081600360003373ffffffffffffffffffffffffffffffffffffffff1673ffffffffffffffffffffffffffffffffffffffff1681526020019081526020016000205410156116d7576040517f08c379a00000000000000000000000000000000000000000000000000000000081526004016116ce90612614565b60405180910390fd5b61172982600360003373ffffffffffffffffffffffffffffffffffffffff1673ffffffffffffffffffffffffffffffffffffffff16815260200190815260200160002054611cf790919063ffffffff16565b600360003373ffffffffffffffffffffffffffffffffffffffff1673ffffffffffffffffffffffffffffffffffffffff16815260200190815260200160002081905550600560009054906101000a900473ffffffffffffffffffffffffffffffffffffffff1673ffffffffffffffffffffffffffffffffffffffff1663a9059cbb33846040518363ffffffff1660e01b81526004016117c99291906124ef565b602060405180830381600087803b1580156117e357600080fd5b505af11580156117f7573d6000803e3d6000fd5b505050506040513d601f19601f8201168201806040525081019061181b9190611f10565b61182457600080fd5b3373ffffffffffffffffffffffffffffffffffffffff167f750323cef883e7f11e917e2f77ec4d0dbf8c7bc920213bf3fbda0749368ea6258360405161186a9190612754565b60405180910390a260019050919050565b606080600080600080600080600260008a8152602001908152602001600020905080600001816001018260030154836004015484600501548560060160009054906101000a900460ff168660060160019054906101000a900460ff16868054600181600116156101000203166002900480601f01602080910402602001604051908101604052809291908181526020018280546001816001161561010002031660029004801561196c5780601f106119415761010080835404028352916020019161196c565b820191906000526020600020905b81548152906001019060200180831161194f57829003601f168201915b50505050509650858054600181600116156101000203166002900480601f016020809104026020016040519081016040528092919081815260200182805460018160011615610100020316600290048015611a085780601f106119dd57610100808354040283529160200191611a08565b820191906000526020600020905b8154815290600101906020018083116119eb57829003601f168201915b50505050509550975097509750975097509750975050919395979092949650565b6000814210159050919050565b611a3e611c67565b73ffffffffffffffffffffffffffffffffffffffff1660008054906101000a900473ffffffffffffffffffffffffffffffffffffffff1673ffffffffffffffffffffffffffffffffffffffff1614611afe576040517f08c379a00000000000000000000000000000000000000000000000000000000081526004018080602001828103825260208152602001807f4f776e61626c653a2063616c6c6572206973206e6f7420746865206f776e657281525060200191505060405180910390fd5b600073ffffffffffffffffffffffffffffffffffffffff168173ffffffffffffffffffffffffffffffffffffffff161415611b84576040517f08c379a00000000000000000000000000000000000000000000000000000000081526004018080602001828103825260268152602001806129896026913960400191505060405180910390fd5b8073ffffffffffffffffffffffffffffffffffffffff1660008054906101000a900473ffffffffffffffffffffffffffffffffffffffff1673ffffffffffffffffffffffffffffffffffffffff167f8be0079c531659141344cd1fd0a4f28419497f9722a3daafe3b4186f6b6457e060405160405180910390a3806000806101000a81548173ffffffffffffffffffffffffffffffffffffffff021916908373ffffffffffffffffffffffffffffffffffffffff16021790555050565b600560009054906101000a900473ffffffffffffffffffffffffffffffffffffffff1681565b600033905090565b600080828401905083811015611ced576040517f08c379a000000000000000000000000000000000000000000000000000000000815260040180806020018281038252601b8152602001807f536166654d6174683a206164646974696f6e206f766572666c6f77000000000081525060200191505060405180910390fd5b8091505092915050565b600082821115611d6f576040517f08c379a000000000000000000000000000000000000000000000000000000000815260040180806020018281038252601e8152602001807f536166654d6174683a207375627472616374696f6e206f766572666c6f77000081525060200191505060405180910390fd5b600082840390508091505092915050565b828054600181600116156101000203166002900490600052602060002090601f016020900481019282611db65760008555611dfd565b82601f10611dcf57805160ff1916838001178555611dfd565b82800160010185558215611dfd579182015b82811115611dfc578251825591602001919060010190611de1565b5b509050611e0a9190611e0e565b5090565b5b80821115611e27576000816000905550600101611e0f565b5090565b6000611e3e611e3984612800565b6127cf565b905082815260208101848484011115611e5657600080fd5b611e618482856128ee565b509392505050565b600081359050611e7881612943565b92915050565b600081519050611e8d8161295a565b92915050565b600082601f830112611ea457600080fd5b8135611eb4848260208601611e2b565b91505092915050565b600081359050611ecc81612971565b92915050565b600081519050611ee181612971565b92915050565b600060208284031215611ef957600080fd5b6000611f0784828501611e69565b91505092915050565b600060208284031215611f2257600080fd5b6000611f3084828501611e7e565b91505092915050565b60008060008060808587031215611f4f57600080fd5b600085013567ffffffffffffffff811115611f6957600080fd5b611f7587828801611e93565b945050602085013567ffffffffffffffff811115611f9257600080fd5b611f9e87828801611e93565b9350506040611faf87828801611ebd565b9250506060611fc087828801611ebd565b91505092959194509250565b600060208284031215611fde57600080fd5b6000611fec84828501611ebd565b91505092915050565b60006020828403121561200757600080fd5b600061201584828501611ed2565b91505092915050565b6000806040838503121561203157600080fd5b600061203f85828601611ebd565b925050602061205085828601611ebd565b9150509250929050565b61206381612894565b82525050565b6120728161284c565b82525050565b6120818161285e565b82525050565b612090816128a6565b82525050565b60006120a182612830565b6120ab818561283b565b93506120bb8185602086016128fd565b6120c481612932565b840191505092915050565b60006120dc601f8361283b565b91507f43616e6e6e6f742066756e64206d6f7265207468616e20796f752068617665006000830152602082019050919050565b600061211c602b8361283b565b91507f43616e6e6f74207769746864726177206d6f7265207468616e2075736564206960008301527f6e2070726f706f73616c730000000000000000000000000000000000000000006020830152604082019050919050565b600061218260198361283b565b91507f4e6f2066756e6473207261697365642062792073656e646572000000000000006000830152602082019050919050565b60006121c260228361283b565b91507f4e6f7420656e6f7567682066756e647320696e2066756e64696e67207269676860008301527f74730000000000000000000000000000000000000000000000000000000000006020830152604082019050919050565b6000612228601b8361283b565b91507f7261697365642066756e6473207761732073756666696369656e7400000000006000830152602082019050919050565b6000612268601d8361283b565b91507f66756e6472616973696e672068617320656e64656420616c72656164790000006000830152602082019050919050565b60006122a860218361283b565b91507f66756e64732068617665206265656e2077697468647261776e20616c7265616460008301527f79000000000000000000000000000000000000000000000000000000000000006020830152604082019050919050565b600061230e60238361283b565b91507f43616e6e6f742066756e642073656c662d67656e6572617465642070726f706f60008301527f73616c00000000000000000000000000000000000000000000000000000000006020830152604082019050919050565b600061237460248361283b565b91507f7261697365642066756e647320646f206e6f74206d656574207265717569726560008301527f6d656e74000000000000000000000000000000000000000000000000000000006020830152604082019050919050565b60006123da602a8361283b565b91507f5468697320636f6e747261637420616464726573732069732070726f6869626960008301527f74656420746f20757365000000000000000000000000000000000000000000006020830152604082019050919050565b6000612440601d8361283b565b91507f66756e6472616973696e6720686173206e6f7420656e646564207965740000006000830152602082019050919050565b61247c8161288a565b82525050565b60006020820190506124976000830184612069565b92915050565b60006020820190506124b2600083018461205a565b92915050565b60006060820190506124cd600083018661205a565b6124da6020830185612069565b6124e76040830184612473565b949350505050565b6000604082019050612504600083018561205a565b6125116020830184612473565b9392505050565b600060408201905061252d6000830185612069565b61253a6020830184612473565b9392505050565b60006020820190506125566000830184612078565b92915050565b60006020820190506125716000830184612087565b92915050565b600060e0820190508181036000830152612591818a612096565b905081810360208301526125a58189612096565b90506125b46040830188612473565b6125c16060830187612473565b6125ce6080830186612473565b6125db60a0830185612078565b6125e860c0830184612078565b98975050505050505050565b6000602082019050818103600083015261260d816120cf565b9050919050565b6000602082019050818103600083015261262d8161210f565b9050919050565b6000602082019050818103600083015261264d81612175565b9050919050565b6000602082019050818103600083015261266d816121b5565b9050919050565b6000602082019050818103600083015261268d8161221b565b9050919050565b600060208201905081810360008301526126ad8161225b565b9050919050565b600060208201905081810360008301526126cd8161229b565b9050919050565b600060208201905081810360008301526126ed81612301565b9050919050565b6000602082019050818103600083015261270d81612367565b9050919050565b6000602082019050818103600083015261272d816123cd565b9050919050565b6000602082019050818103600083015261274d81612433565b9050919050565b60006020820190506127696000830184612473565b92915050565b60006040820190506127846000830185612473565b6127916020830184612473565b9392505050565b60006060820190506127ad6000830186612473565b6127ba6020830185612473565b6127c76040830184612473565b949350505050565b6000604051905081810181811067ffffffffffffffff821117156127f6576127f5612930565b5b8060405250919050565b600067ffffffffffffffff82111561281b5761281a612930565b5b601f19601f8301169050602081019050919050565b600081519050919050565b600082825260208201905092915050565b60006128578261286a565b9050919050565b60008115159050919050565b600073ffffffffffffffffffffffffffffffffffffffff82169050919050565b6000819050919050565b600061289f826128ca565b9050919050565b60006128b1826128b8565b9050919050565b60006128c38261286a565b9050919050565b60006128d5826128dc565b9050919050565b60006128e78261286a565b9050919050565b82818337600083830152505050565b60005b8381101561291b578082015181840152602081019050612900565b8381111561292a576000848401525b50505050565bfe5b6000601f19601f8301169050919050565b61294c8161284c565b811461295757600080fd5b50565b6129638161285e565b811461296e57600080fd5b50565b61297a8161288a565b811461298557600080fd5b5056fe4f776e61626c653a206e6577206f776e657220697320746865207a65726f2061646472657373a2646970667358221220f4d9f867c0c21c96565d1c607b166802465b9436050a73143cc2a550f523312264736f6c63430007060033",
  "immutableReferences": {},
  "source": "// SPDX-License-Identifier: UNLICENSED \n\npragma solidity >=0.6.2 <0.8.0;\npragma experimental ABIEncoderV2; \n\nimport \"./utils/Address.sol\";\nimport \"./utils/SafeMath.sol\";\nimport \"./access/Ownable.sol\";\nimport \"./interfaces/IERC20.sol\";\n\ncontract HagoromoV1 is Ownable {\n    using Address for address;\n    using SafeMath for uint;\n\n    // events\n    event _ProposalInitialized(uint endDate, uint requiredFund, uint propNonce, address indexed creator);\n    event _FundingRightsGranted(uint numTokens, address indexed fundRaiser);\n    event _FundingRightsWithdrawn(uint numTokens, address indexed fundRaiser);\n    event _FundRaising(uint propNonce, uint numTokens, address indexed fundRaiser);\n    event _TokensWithdrawn(uint propNonce, address indexed creator);\n    event _TokensRescued(uint propNonce, address indexed fundRaiser);\n\n    // storage\n    struct proposal {\n        string description; // short description (up to 32 bytes)\n        string url; // url for the project (up to 32 bytes)\n        address beneficiary; // beneficiary address who creates a proposal\n        uint endDate; // expiration date of the proposal\n        uint raisedFund; // the total raised funds\n        uint requiredFund; // target amount of this proposal\n        bool status; // status if the requiredFund is pass\n        bool transferred; // if raisedFund was transferred\n    }\n\n    // declares variables\n    uint constant private INITIAL_PROPOSAL_NONCE = 0; // initial proposal nonce number\n    uint private propNonce; // increasing proposal nonce number\n\n    mapping(uint => proposal) private _propMap; // maps propNonce to proposal struct\n    mapping(address => uint) private _propTokenBalance; // maps user's address to tokenBalance\n    mapping(uint => mapping(address => uint)) private _pendingFunds; // maps pending Funds\n\n    IERC20 public token; // we use JPYC for Hagoromo application as of now\n\n    /**\n     * @notice Initializer. This can only be called once.\n     * @param _token The address where the ERC20 token contract is deployed.\n     */\n    function init(address _token) external onlyOwner { // this function can be a constructor??\n        require(_token != address(0) && address(token) == address(0), \"This contract address is prohibited to use\");\n        token = IERC20(_token);\n        propNonce = INITIAL_PROPOSAL_NONCE;\n    }\n\n    // getter functions\n    function pendingFund(uint _propNonce) external view returns (uint) {\n        return _pendingFunds[_propNonce][msg.sender];\n    }\n\n    function tokenBalance() external view returns (uint) {\n        return _propTokenBalance[msg.sender];\n    }\n\n    function getProposal(uint _propNonce) external view returns(\n        string memory,\n        string memory,\n        uint,\n        uint,\n        uint,\n        bool,\n        bool)\n    {\n        proposal storage p = _propMap[_propNonce];\n        return (\n            p.description,\n            p.url,\n            p.endDate,\n            p.raisedFund,\n            p.requiredFund,\n            p.status,\n            p.transferred\n        );\n    }\n\n    function getPropNonce() external view returns (uint) {\n        return propNonce;\n    }\n\n    // token interface\n    /**\n     * @notice TransferFrom _numTokens ERC20 tokens to the app contract, granting funds\n     * @dev Assumes that msg.sender has approved the app contract to spend on their behalf\n     * @param _numTokens The number of funds tokens desired in exchange for ERC20 tokens\n     */\n    function requestFundingRights(uint _numTokens) external returns (bool) {\n        require(token.balanceOf(msg.sender) >= _numTokens, \"Cannnot fund more than you have\");\n        _propTokenBalance[msg.sender] = _propTokenBalance[msg.sender].add(_numTokens);\n\n        // Transfer tokens to the app contract\n        // A user must approve tokens to the contract in advance token.approve\n        require(token.transferFrom(msg.sender, address(this), _numTokens));\n        emit _FundingRightsGranted(_numTokens, msg.sender);\n\n        return true;\n    }\n\n    /**\n     * @notice Withdraw _numTokens ERC20 tokens from the app contract, revoking funds\n     * @dev Assume that the contract itself has had enough eth to call transfer function\n     * @param _numTokens The number of ERC20 tokens desired in the contract for ERC20 tokens\n     */\n    function withdrawFundingRights(uint _numTokens) external returns (bool) {\n        // withdraw tokens only not locked should be available\n        require(_propTokenBalance[msg.sender] >= _numTokens, \"Cannot withdraw more than used in proposals\");\n        _propTokenBalance[msg.sender] = _propTokenBalance[msg.sender].sub(_numTokens);\n\n        // Transfer tokens to the sender address\n        // this contract must be able to send the tokens that are not used to the sender\n        require(token.transfer(msg.sender, _numTokens));\n        emit _FundingRightsWithdrawn(_numTokens, msg.sender);\n\n        return true;\n    }\n\n    /**\n     * @notice Withdraw funded ERC20 tokens from the contract if the proposal has ended\n     * @dev Assure that the proposal has ended and the funds reached the requirement\n     * @param _propNonce Integer of the target proposal that has been ended\n     */\n    function withdrawTokens(uint _propNonce) external returns (bool) {\n        // this function can be called from non beneficiary address\n        proposal storage p = _propMap[_propNonce];\n\n        require(isExpired(p.endDate), \"fundraising has not ended yet\");\n        require(p.status == true, \"raised funds do not meet requirement\");\n\n        // Withdraw tokens to the beneficiary address\n        require(p.transferred == false, \"funds have been withdrawn already\");\n        require(token.transfer(p.beneficiary, p.raisedFund));\n        p.transferred = true;\n        p.raisedFund = 0;\n\n        // set zero all elements in p.pendingFunds mapping if possible, how?\n        // or can we keep that funding status for tracking purpose with the proposal?\n        emit _TokensWithdrawn(_propNonce, msg.sender);\n\n        return true;\n    }\n\n    /**\n     * @notice Withdraw funds ERC20 tokens from the proposal to the funding rights\n     * @dev Assure that the proposal has ended and the funds did not reach the requirement\n     * @param _propNonce Integer of the target proposal that has been ended\n     */\n    function rescueTokens(uint _propNonce) external returns (bool) {\n        // this function must be called from each fundraiser to withdraw\n        proposal storage p = _propMap[_propNonce];\n\n        require(isExpired(p.endDate), \"fundraising has not ended yet\");\n        require(p.status == false, \"raised funds was sufficient\");\n        // Revert the call if msg.sender did not fund anything on this proposal\n        require(_pendingFunds[_propNonce][msg.sender] > 0, \"No funds raised by sender\");\n\n        // Withdraw ERC20 tokens from the proposal to the funding rights\n        _propTokenBalance[msg.sender] = _propTokenBalance[msg.sender].add(_pendingFunds[_propNonce][msg.sender]);\n        p.raisedFund = p.raisedFund.sub(_pendingFunds[_propNonce][msg.sender]);\n        _pendingFunds[_propNonce][msg.sender] = 0;\n\n        emit _TokensRescued(_propNonce, msg.sender);\n\n        return true;\n    }\n\n    // funding interface\n    /**\n     * @notice Transfer funds ERC20 tokens from the funding rights to the proposal\n     * @dev Assure that the proposal has not ended and sender has enough funding rights\n     * @param _propNonce Integer of the target proposal that has been ended\n     * @param _funding Integer of the funding that the sender transfers\n     */\n    function fundRaising(uint _propNonce, uint _funding) external returns (bool) {\n        proposal storage p = _propMap[_propNonce];\n\n        // Revert the call if the fundraising period is over\n        require(!isExpired(p.endDate), \"fundraising has ended already\");\n        require(p.beneficiary != msg.sender, \"Cannot fund self-generated proposal\");\n        require(_propTokenBalance[msg.sender] >= _funding, \"Not enough funds in funding rights\");\n\n        // raise funds, and substract the raised tokens from propTokenBalance\n        p.raisedFund = p.raisedFund.add(_funding);\n        _propTokenBalance[msg.sender] = _propTokenBalance[msg.sender].sub(_funding);\n        _pendingFunds[_propNonce][msg.sender] = _pendingFunds[_propNonce][msg.sender].add(_funding);\n\n        // set status true if raised fund reaches the requirement\n        if (p.raisedFund >= p.requiredFund) {\n            p.status = true;\n        }\n\n        emit _FundRaising(_propNonce, _funding, msg.sender);\n        return true;\n    }\n\n    /**\n     * @dev Initiates a proposal with canonical configured parameters at propNonce\n     * @param _description String of description of the proposal\n     * @param _url String of the proposal url that explains the project\n     * @param _duration Length of duration in seconds in addition to block.timestamp\n     * @param _requiredFund Integer of the required funds for the proposal\n     */\n    function initializeProposal(string memory _description, string memory _url, uint _duration, uint _requiredFund) public returns (uint) {\n        propNonce = propNonce.add(1);\n        address _beneficiary = msg.sender;\n        uint _endDate = block.timestamp.add(_duration);\n\n        _propMap[propNonce] = proposal({\n            description: _description,\n            url: _url,\n            beneficiary: _beneficiary,\n            endDate: _endDate,\n            raisedFund: 0,\n            requiredFund: _requiredFund,\n            status: false,\n            transferred: false\n        });\n\n        emit _ProposalInitialized(_endDate, _requiredFund, propNonce, msg.sender);\n        return propNonce;\n    }\n\n    // helper functions\n    /**\n     * @dev Checks if an expiration date has been reached\n     * @param _endDate Integer timestamp date to compare current timestamp with\n     * @return expired Boolean indication of whether the terminationDate has passed\n     */\n    function isExpired(uint _endDate) public view returns (bool expired) {\n        return (block.timestamp >= _endDate);\n    }\n\n    function destruct() external onlyOwner {\n        selfdestruct(msg.sender);\n    }\n}\n",
  "sourcePath": "/home/ether/work/truffle/hagoromo/contracts/HagoromoV1.sol",
  "compiler": {
    "name": "solc",
    "version": "0.7.6+commit.7338295f.Emscripten.clang"
  },
  "schemaVersion": "3.3.4",
  "updatedAt": "2021-04-17T05:09:27.853Z",
  "networkType": "ethereum",
  "devdoc": {
    "kind": "dev",
    "methods": {
      "fundRaising(uint256,uint256)": {
        "details": "Assure that the proposal has not ended and sender has enough funding rights",
        "params": {
          "_funding": "Integer of the funding that the sender transfers",
          "_propNonce": "Integer of the target proposal that has been ended"
        }
      },
      "init(address)": {
        "params": {
          "_token": "The address where the ERC20 token contract is deployed."
        }
      },
      "initializeProposal(string,string,uint256,uint256)": {
        "details": "Initiates a proposal with canonical configured parameters at propNonce",
        "params": {
          "_description": "String of description of the proposal",
          "_duration": "Length of duration in seconds in addition to block.timestamp",
          "_requiredFund": "Integer of the required funds for the proposal",
          "_url": "String of the proposal url that explains the project"
        }
      },
      "isExpired(uint256)": {
        "details": "Checks if an expiration date has been reached",
        "params": {
          "_endDate": "Integer timestamp date to compare current timestamp with"
        },
        "returns": {
          "expired": "Boolean indication of whether the terminationDate has passed"
        }
      },
      "owner()": {
        "details": "Returns the address of the current owner."
      },
      "renounceOwnership()": {
        "details": "Leaves the contract without owner. It will not be possible to call `onlyOwner` functions anymore. Can only be called by the current owner. NOTE: Renouncing ownership will leave the contract without an owner, thereby removing any functionality that is only available to the owner."
      },
      "requestFundingRights(uint256)": {
        "details": "Assumes that msg.sender has approved the app contract to spend on their behalf",
        "params": {
          "_numTokens": "The number of funds tokens desired in exchange for ERC20 tokens"
        }
      },
      "rescueTokens(uint256)": {
        "details": "Assure that the proposal has ended and the funds did not reach the requirement",
        "params": {
          "_propNonce": "Integer of the target proposal that has been ended"
        }
      },
      "transferOwnership(address)": {
        "details": "Transfers ownership of the contract to a new account (`newOwner`). Can only be called by the current owner."
      },
      "withdrawFundingRights(uint256)": {
        "details": "Assume that the contract itself has had enough eth to call transfer function",
        "params": {
          "_numTokens": "The number of ERC20 tokens desired in the contract for ERC20 tokens"
        }
      },
      "withdrawTokens(uint256)": {
        "details": "Assure that the proposal has ended and the funds reached the requirement",
        "params": {
          "_propNonce": "Integer of the target proposal that has been ended"
        }
      }
    },
    "version": 1
  },
  "userdoc": {
    "kind": "user",
    "methods": {
      "fundRaising(uint256,uint256)": {
        "notice": "Transfer funds ERC20 tokens from the funding rights to the proposal"
      },
      "init(address)": {
        "notice": "Initializer. This can only be called once."
      },
      "requestFundingRights(uint256)": {
        "notice": "TransferFrom _numTokens ERC20 tokens to the app contract, granting funds"
      },
      "rescueTokens(uint256)": {
        "notice": "Withdraw funds ERC20 tokens from the proposal to the funding rights"
      },
      "withdrawFundingRights(uint256)": {
        "notice": "Withdraw _numTokens ERC20 tokens from the app contract, revoking funds"
      },
      "withdrawTokens(uint256)": {
        "notice": "Withdraw funded ERC20 tokens from the contract if the proposal has ended"
      }
    },
    "version": 1
  }
}