{
  "contractName": "HagoromoV1",
  "abi": [
    {
      "anonymous": false,
      "inputs": [
        {
          "indexed": true,
          "internalType": "address",
          "name": "previousOwner",
          "type": "address"
        },
        {
          "indexed": true,
          "internalType": "address",
          "name": "newOwner",
          "type": "address"
        }
      ],
      "name": "OwnershipTransferred",
      "type": "event"
    },
    {
      "anonymous": false,
      "inputs": [
        {
          "indexed": false,
          "internalType": "uint256",
          "name": "propNonce",
          "type": "uint256"
        },
        {
          "indexed": false,
          "internalType": "uint256",
          "name": "numTokens",
          "type": "uint256"
        },
        {
          "indexed": true,
          "internalType": "address",
          "name": "fundRaiser",
          "type": "address"
        }
      ],
      "name": "_FundRaising",
      "type": "event"
    },
    {
      "anonymous": false,
      "inputs": [
        {
          "indexed": false,
          "internalType": "uint256",
          "name": "numTokens",
          "type": "uint256"
        },
        {
          "indexed": true,
          "internalType": "address",
          "name": "fundRaiser",
          "type": "address"
        }
      ],
      "name": "_FundingRightsGranted",
      "type": "event"
    },
    {
      "anonymous": false,
      "inputs": [
        {
          "indexed": false,
          "internalType": "uint256",
          "name": "numTokens",
          "type": "uint256"
        },
        {
          "indexed": true,
          "internalType": "address",
          "name": "fundRaiser",
          "type": "address"
        }
      ],
      "name": "_FundingRightsWithdrawn",
      "type": "event"
    },
    {
      "anonymous": false,
      "inputs": [
        {
          "indexed": false,
          "internalType": "bytes32",
          "name": "description",
          "type": "bytes32"
        },
        {
          "indexed": false,
          "internalType": "uint256",
          "name": "endDate",
          "type": "uint256"
        },
        {
          "indexed": false,
          "internalType": "uint256",
          "name": "requiredFund",
          "type": "uint256"
        },
        {
          "indexed": false,
          "internalType": "uint256",
          "name": "propNonce",
          "type": "uint256"
        },
        {
          "indexed": true,
          "internalType": "address",
          "name": "creator",
          "type": "address"
        }
      ],
      "name": "_ProposalInitialized",
      "type": "event"
    },
    {
      "anonymous": false,
      "inputs": [
        {
          "indexed": false,
          "internalType": "uint256",
          "name": "propNonce",
          "type": "uint256"
        },
        {
          "indexed": true,
          "internalType": "address",
          "name": "fundRaiser",
          "type": "address"
        }
      ],
      "name": "_TokensRescued",
      "type": "event"
    },
    {
      "anonymous": false,
      "inputs": [
        {
          "indexed": false,
          "internalType": "uint256",
          "name": "propNonce",
          "type": "uint256"
        },
        {
          "indexed": true,
          "internalType": "address",
          "name": "creator",
          "type": "address"
        }
      ],
      "name": "_TokensWithdrawn",
      "type": "event"
    },
    {
      "inputs": [],
      "name": "owner",
      "outputs": [
        {
          "internalType": "address",
          "name": "",
          "type": "address"
        }
      ],
      "stateMutability": "view",
      "type": "function",
      "constant": true
    },
    {
      "inputs": [],
      "name": "renounceOwnership",
      "outputs": [],
      "stateMutability": "nonpayable",
      "type": "function"
    },
    {
      "inputs": [],
      "name": "token",
      "outputs": [
        {
          "internalType": "contract IERC20",
          "name": "",
          "type": "address"
        }
      ],
      "stateMutability": "view",
      "type": "function",
      "constant": true
    },
    {
      "inputs": [
        {
          "internalType": "address",
          "name": "newOwner",
          "type": "address"
        }
      ],
      "name": "transferOwnership",
      "outputs": [],
      "stateMutability": "nonpayable",
      "type": "function"
    },
    {
      "inputs": [
        {
          "internalType": "address",
          "name": "_token",
          "type": "address"
        }
      ],
      "name": "init",
      "outputs": [],
      "stateMutability": "nonpayable",
      "type": "function"
    },
    {
      "inputs": [
        {
          "internalType": "uint256",
          "name": "_propNonce",
          "type": "uint256"
        }
      ],
      "name": "pendingFund",
      "outputs": [
        {
          "internalType": "uint256",
          "name": "",
          "type": "uint256"
        }
      ],
      "stateMutability": "view",
      "type": "function",
      "constant": true
    },
    {
      "inputs": [],
      "name": "tokenBalance",
      "outputs": [
        {
          "internalType": "uint256",
          "name": "",
          "type": "uint256"
        }
      ],
      "stateMutability": "view",
      "type": "function",
      "constant": true
    },
    {
      "inputs": [
        {
          "internalType": "uint256",
          "name": "_propNonce",
          "type": "uint256"
        }
      ],
      "name": "getProposal",
      "outputs": [
        {
          "internalType": "bytes32",
          "name": "",
          "type": "bytes32"
        },
        {
          "internalType": "bytes32",
          "name": "",
          "type": "bytes32"
        },
        {
          "internalType": "uint256",
          "name": "",
          "type": "uint256"
        },
        {
          "internalType": "uint256",
          "name": "",
          "type": "uint256"
        },
        {
          "internalType": "uint256",
          "name": "",
          "type": "uint256"
        },
        {
          "internalType": "bool",
          "name": "",
          "type": "bool"
        },
        {
          "internalType": "bool",
          "name": "",
          "type": "bool"
        }
      ],
      "stateMutability": "view",
      "type": "function",
      "constant": true
    },
    {
      "inputs": [
        {
          "internalType": "uint256",
          "name": "_numTokens",
          "type": "uint256"
        }
      ],
      "name": "requestFundingRights",
      "outputs": [
        {
          "internalType": "bool",
          "name": "",
          "type": "bool"
        }
      ],
      "stateMutability": "nonpayable",
      "type": "function"
    },
    {
      "inputs": [
        {
          "internalType": "uint256",
          "name": "_numTokens",
          "type": "uint256"
        }
      ],
      "name": "withdrawFundingRights",
      "outputs": [
        {
          "internalType": "bool",
          "name": "",
          "type": "bool"
        }
      ],
      "stateMutability": "nonpayable",
      "type": "function"
    },
    {
      "inputs": [
        {
          "internalType": "uint256",
          "name": "_propNonce",
          "type": "uint256"
        }
      ],
      "name": "withdrawTokens",
      "outputs": [
        {
          "internalType": "bool",
          "name": "",
          "type": "bool"
        }
      ],
      "stateMutability": "nonpayable",
      "type": "function"
    },
    {
      "inputs": [
        {
          "internalType": "uint256",
          "name": "_propNonce",
          "type": "uint256"
        }
      ],
      "name": "rescueTokens",
      "outputs": [
        {
          "internalType": "bool",
          "name": "",
          "type": "bool"
        }
      ],
      "stateMutability": "nonpayable",
      "type": "function"
    },
    {
      "inputs": [
        {
          "internalType": "uint256",
          "name": "_propNonce",
          "type": "uint256"
        },
        {
          "internalType": "uint256",
          "name": "_funding",
          "type": "uint256"
        }
      ],
      "name": "fundRaising",
      "outputs": [
        {
          "internalType": "bool",
          "name": "",
          "type": "bool"
        }
      ],
      "stateMutability": "nonpayable",
      "type": "function"
    },
    {
      "inputs": [
        {
          "internalType": "bytes32",
          "name": "_description",
          "type": "bytes32"
        },
        {
          "internalType": "bytes32",
          "name": "_url",
          "type": "bytes32"
        },
        {
          "internalType": "uint256",
          "name": "_duration",
          "type": "uint256"
        },
        {
          "internalType": "uint256",
          "name": "_requiredFund",
          "type": "uint256"
        }
      ],
      "name": "initializeProposal",
      "outputs": [
        {
          "internalType": "uint256",
          "name": "",
          "type": "uint256"
        }
      ],
      "stateMutability": "nonpayable",
      "type": "function"
    },
    {
      "inputs": [
        {
          "internalType": "uint256",
          "name": "_endDate",
          "type": "uint256"
        }
      ],
      "name": "isExpired",
      "outputs": [
        {
          "internalType": "bool",
          "name": "expired",
          "type": "bool"
        }
      ],
      "stateMutability": "view",
      "type": "function",
      "constant": true
    },
    {
      "inputs": [],
      "name": "getPropNonce",
      "outputs": [
        {
          "internalType": "uint256",
          "name": "",
          "type": "uint256"
        }
      ],
      "stateMutability": "view",
      "type": "function",
      "constant": true
    }
  ],
  "bytecode": "0x608060405234801561001057600080fd5b5060006100216100c460201b60201c565b9050806000806101000a81548173ffffffffffffffffffffffffffffffffffffffff021916908373ffffffffffffffffffffffffffffffffffffffff1602179055508073ffffffffffffffffffffffffffffffffffffffff16600073ffffffffffffffffffffffffffffffffffffffff167f8be0079c531659141344cd1fd0a4f28419497f9722a3daafe3b4186f6b6457e060405160405180910390a3506100cc565b600033905090565b61259c806100db6000396000f3fe608060405234801561001057600080fd5b50600436106101005760003560e01c80639760356011610097578063d9548e5311610066578063d9548e53146102db578063e0133ba51461030b578063f2fde38b1461033b578063fc0c546a1461035757610100565b806397603560146102275780639e1a4d1914610257578063c541424714610275578063c7f758a8146102a557610100565b80634112db6b116100d35780634112db6b146101b157806346b18305146101cf578063715018a6146101ff5780638da5cb5b1461020957610100565b806319ab453c146101055780631af7596814610121578063261cda2c14610151578063315a095d14610181575b600080fd5b61011f600480360381019061011a9190611b99565b610375565b005b61013b60048036038101906101369190611c4e565b610553565b60405161014891906123e3565b60405180910390f35b61016b60048036038101906101669190611ca0565b6105ad565b6040516101789190612199565b60405180910390f35b61019b60048036038101906101969190611c4e565b61091a565b6040516101a89190612199565b60405180910390f35b6101b9610b8d565b6040516101c691906123e3565b60405180910390f35b6101e960048036038101906101e49190611c4e565b610b97565b6040516101f69190612199565b60405180910390f35b610207610e2c565b005b610211610fb2565b60405161021e91906120da565b60405180910390f35b610241600480360381019061023c9190611c4e565b610fdb565b60405161024e9190612199565b60405180910390f35b61025f61132c565b60405161026c91906123e3565b60405180910390f35b61028f600480360381019061028a9190611c4e565b611373565b60405161029c9190612199565b60405180910390f35b6102bf60048036038101906102ba9190611c4e565b61159b565b6040516102d297969594939291906121b4565b60405180910390f35b6102f560048036038101906102f09190611c4e565b611613565b6040516103029190612199565b60405180910390f35b61032560048036038101906103209190611beb565b611620565b60405161033291906123e3565b60405180910390f35b61035560048036038101906103509190611b99565b6117e6565b005b61035f6119f1565b60405161036c9190612268565b60405180910390f35b61037d611a17565b73ffffffffffffffffffffffffffffffffffffffff1660008054906101000a900473ffffffffffffffffffffffffffffffffffffffff1673ffffffffffffffffffffffffffffffffffffffff161461043d576040517f08c379a00000000000000000000000000000000000000000000000000000000081526004018080602001828103825260208152602001807f4f776e61626c653a2063616c6c6572206973206e6f7420746865206f776e657281525060200191505060405180910390fd5b600073ffffffffffffffffffffffffffffffffffffffff168173ffffffffffffffffffffffffffffffffffffffff16141580156104c85750600073ffffffffffffffffffffffffffffffffffffffff16600560009054906101000a900473ffffffffffffffffffffffffffffffffffffffff1673ffffffffffffffffffffffffffffffffffffffff16145b610507576040517f08c379a00000000000000000000000000000000000000000000000000000000081526004016104fe906123a3565b60405180910390fd5b80600560006101000a81548173ffffffffffffffffffffffffffffffffffffffff021916908373ffffffffffffffffffffffffffffffffffffffff160217905550600060018190555050565b60006004600083815260200190815260200160002060003373ffffffffffffffffffffffffffffffffffffffff1673ffffffffffffffffffffffffffffffffffffffff168152602001908152602001600020549050919050565b6000806002600085815260200190815260200160002090506105d28160030154611613565b15610612576040517f08c379a000000000000000000000000000000000000000000000000000000000815260040161060990612323565b60405180910390fd5b3373ffffffffffffffffffffffffffffffffffffffff168160020160009054906101000a900473ffffffffffffffffffffffffffffffffffffffff1673ffffffffffffffffffffffffffffffffffffffff1614156106a5576040517f08c379a000000000000000000000000000000000000000000000000000000000815260040161069c90612363565b60405180910390fd5b82600360003373ffffffffffffffffffffffffffffffffffffffff1673ffffffffffffffffffffffffffffffffffffffff168152602001908152602001600020541015610727576040517f08c379a000000000000000000000000000000000000000000000000000000000815260040161071e906122e3565b60405180910390fd5b61073e838260040154611a1f90919063ffffffff16565b816004018190555061079883600360003373ffffffffffffffffffffffffffffffffffffffff1673ffffffffffffffffffffffffffffffffffffffff16815260200190815260200160002054611aa790919063ffffffff16565b600360003373ffffffffffffffffffffffffffffffffffffffff1673ffffffffffffffffffffffffffffffffffffffff1681526020019081526020016000208190555061083e836004600087815260200190815260200160002060003373ffffffffffffffffffffffffffffffffffffffff1673ffffffffffffffffffffffffffffffffffffffff16815260200190815260200160002054611a1f90919063ffffffff16565b6004600086815260200190815260200160002060003373ffffffffffffffffffffffffffffffffffffffff1673ffffffffffffffffffffffffffffffffffffffff1681526020019081526020016000208190555080600501548160040154106108bf5760018160060160006101000a81548160ff0219169083151502179055505b3373ffffffffffffffffffffffffffffffffffffffff167f8707269f19725fea13844afca380b41d068109924063050d9bbddb04ff58488085856040516109079291906123fe565b60405180910390a2600191505092915050565b60008060026000848152602001908152602001600020905061093f8160030154611613565b61097e576040517f08c379a0000000000000000000000000000000000000000000000000000000008152600401610975906123c3565b60405180910390fd5b600115158160060160009054906101000a900460ff161515146109d6576040517f08c379a00000000000000000000000000000000000000000000000000000000081526004016109cd90612383565b60405180910390fd5b600015158160060160019054906101000a900460ff16151514610a2e576040517f08c379a0000000000000000000000000000000000000000000000000000000008152600401610a2590612343565b60405180910390fd5b600560009054906101000a900473ffffffffffffffffffffffffffffffffffffffff1673ffffffffffffffffffffffffffffffffffffffff1663a9059cbb8260020160009054906101000a900473ffffffffffffffffffffffffffffffffffffffff1683600401546040518363ffffffff1660e01b8152600401610ab3929190612170565b602060405180830381600087803b158015610acd57600080fd5b505af1158015610ae1573d6000803e3d6000fd5b505050506040513d601f19601f82011682018060405250810190610b059190611bc2565b610b0e57600080fd5b60018160060160016101000a81548160ff021916908315150217905550600081600401819055503373ffffffffffffffffffffffffffffffffffffffff167f17f7d3db334658cdd14722182c5d9af29d0d1514f1c1b7b1daee0e309bea90b984604051610b7b91906123e3565b60405180910390a26001915050919050565b6000600154905090565b600081600560009054906101000a900473ffffffffffffffffffffffffffffffffffffffff1673ffffffffffffffffffffffffffffffffffffffff166370a08231336040518263ffffffff1660e01b8152600401610bf591906120f5565b60206040518083038186803b158015610c0d57600080fd5b505afa158015610c21573d6000803e3d6000fd5b505050506040513d601f19601f82011682018060405250810190610c459190611c77565b1015610c86576040517f08c379a0000000000000000000000000000000000000000000000000000000008152600401610c7d90612283565b60405180910390fd5b610cd882600360003373ffffffffffffffffffffffffffffffffffffffff1673ffffffffffffffffffffffffffffffffffffffff16815260200190815260200160002054611a1f90919063ffffffff16565b600360003373ffffffffffffffffffffffffffffffffffffffff1673ffffffffffffffffffffffffffffffffffffffff16815260200190815260200160002081905550600560009054906101000a900473ffffffffffffffffffffffffffffffffffffffff1673ffffffffffffffffffffffffffffffffffffffff166323b872dd3330856040518463ffffffff1660e01b8152600401610d7a93929190612110565b602060405180830381600087803b158015610d9457600080fd5b505af1158015610da8573d6000803e3d6000fd5b505050506040513d601f19601f82011682018060405250810190610dcc9190611bc2565b610dd557600080fd5b3373ffffffffffffffffffffffffffffffffffffffff167f1156aa27a9687051a6d3af37b75e5c381097899b5656cf8ee406120a1b588b4883604051610e1b91906123e3565b60405180910390a260019050919050565b610e34611a17565b73ffffffffffffffffffffffffffffffffffffffff1660008054906101000a900473ffffffffffffffffffffffffffffffffffffffff1673ffffffffffffffffffffffffffffffffffffffff1614610ef4576040517f08c379a00000000000000000000000000000000000000000000000000000000081526004018080602001828103825260208152602001807f4f776e61626c653a2063616c6c6572206973206e6f7420746865206f776e657281525060200191505060405180910390fd5b600073ffffffffffffffffffffffffffffffffffffffff1660008054906101000a900473ffffffffffffffffffffffffffffffffffffffff1673ffffffffffffffffffffffffffffffffffffffff167f8be0079c531659141344cd1fd0a4f28419497f9722a3daafe3b4186f6b6457e060405160405180910390a360008060006101000a81548173ffffffffffffffffffffffffffffffffffffffff021916908373ffffffffffffffffffffffffffffffffffffffff160217905550565b60008060009054906101000a900473ffffffffffffffffffffffffffffffffffffffff16905090565b6000806002600084815260200190815260200160002090506110008160030154611613565b61103f576040517f08c379a0000000000000000000000000000000000000000000000000000000008152600401611036906123c3565b60405180910390fd5b600015158160060160009054906101000a900460ff16151514611097576040517f08c379a000000000000000000000000000000000000000000000000000000000815260040161108e90612303565b60405180910390fd5b60006004600085815260200190815260200160002060003373ffffffffffffffffffffffffffffffffffffffff1673ffffffffffffffffffffffffffffffffffffffff168152602001908152602001600020541161112a576040517f08c379a0000000000000000000000000000000000000000000000000000000008152600401611121906122c3565b60405180910390fd5b6111cc6004600085815260200190815260200160002060003373ffffffffffffffffffffffffffffffffffffffff1673ffffffffffffffffffffffffffffffffffffffff16815260200190815260200160002054600360003373ffffffffffffffffffffffffffffffffffffffff1673ffffffffffffffffffffffffffffffffffffffff16815260200190815260200160002054611a1f90919063ffffffff16565b600360003373ffffffffffffffffffffffffffffffffffffffff1673ffffffffffffffffffffffffffffffffffffffff168152602001908152602001600020819055506112766004600085815260200190815260200160002060003373ffffffffffffffffffffffffffffffffffffffff1673ffffffffffffffffffffffffffffffffffffffff168152602001908152602001600020548260040154611aa790919063ffffffff16565b816004018190555060006004600085815260200190815260200160002060003373ffffffffffffffffffffffffffffffffffffffff1673ffffffffffffffffffffffffffffffffffffffff168152602001908152602001600020819055503373ffffffffffffffffffffffffffffffffffffffff167f402507661c8c8cb90e0a796450b8bdd28b6c516f05279c0cd29e84c344e1699a8460405161131a91906123e3565b60405180910390a26001915050919050565b6000600360003373ffffffffffffffffffffffffffffffffffffffff1673ffffffffffffffffffffffffffffffffffffffff16815260200190815260200160002054905090565b600081600360003373ffffffffffffffffffffffffffffffffffffffff1673ffffffffffffffffffffffffffffffffffffffff1681526020019081526020016000205410156113f7576040517f08c379a00000000000000000000000000000000000000000000000000000000081526004016113ee906122a3565b60405180910390fd5b61144982600360003373ffffffffffffffffffffffffffffffffffffffff1673ffffffffffffffffffffffffffffffffffffffff16815260200190815260200160002054611aa790919063ffffffff16565b600360003373ffffffffffffffffffffffffffffffffffffffff1673ffffffffffffffffffffffffffffffffffffffff16815260200190815260200160002081905550600560009054906101000a900473ffffffffffffffffffffffffffffffffffffffff1673ffffffffffffffffffffffffffffffffffffffff1663a9059cbb33846040518363ffffffff1660e01b81526004016114e9929190612147565b602060405180830381600087803b15801561150357600080fd5b505af1158015611517573d6000803e3d6000fd5b505050506040513d601f19601f8201168201806040525081019061153b9190611bc2565b61154457600080fd5b3373ffffffffffffffffffffffffffffffffffffffff167f750323cef883e7f11e917e2f77ec4d0dbf8c7bc920213bf3fbda0749368ea6258360405161158a91906123e3565b60405180910390a260019050919050565b600080600080600080600080600260008a81526020019081526020016000209050806000015481600101548260030154836004015484600501548560060160009054906101000a900460ff168660060160019054906101000a900460ff16975097509750975097509750975050919395979092949650565b6000814210159050919050565b600061163760018054611a1f90919063ffffffff16565b600181905550600033905060006116578542611a1f90919063ffffffff16565b90506040518061010001604052808881526020018781526020018373ffffffffffffffffffffffffffffffffffffffff1681526020018281526020016000815260200185815260200160001515815260200160001515815250600260006001548152602001908152602001600020600082015181600001556020820151816001015560408201518160020160006101000a81548173ffffffffffffffffffffffffffffffffffffffff021916908373ffffffffffffffffffffffffffffffffffffffff160217905550606082015181600301556080820151816004015560a0820151816005015560c08201518160060160006101000a81548160ff02191690831515021790555060e08201518160060160016101000a81548160ff0219169083151502179055509050503373ffffffffffffffffffffffffffffffffffffffff167f8fdf6d8d4c079cb0aab5bf95948efe88eb6e6ac3fef5835cbf920f67c7dfbfc28883876001546040516117cf9493929190612223565b60405180910390a260015492505050949350505050565b6117ee611a17565b73ffffffffffffffffffffffffffffffffffffffff1660008054906101000a900473ffffffffffffffffffffffffffffffffffffffff1673ffffffffffffffffffffffffffffffffffffffff16146118ae576040517f08c379a00000000000000000000000000000000000000000000000000000000081526004018080602001828103825260208152602001807f4f776e61626c653a2063616c6c6572206973206e6f7420746865206f776e657281525060200191505060405180910390fd5b600073ffffffffffffffffffffffffffffffffffffffff168173ffffffffffffffffffffffffffffffffffffffff161415611934576040517f08c379a00000000000000000000000000000000000000000000000000000000081526004018080602001828103825260268152602001806125416026913960400191505060405180910390fd5b8073ffffffffffffffffffffffffffffffffffffffff1660008054906101000a900473ffffffffffffffffffffffffffffffffffffffff1673ffffffffffffffffffffffffffffffffffffffff167f8be0079c531659141344cd1fd0a4f28419497f9722a3daafe3b4186f6b6457e060405160405180910390a3806000806101000a81548173ffffffffffffffffffffffffffffffffffffffff021916908373ffffffffffffffffffffffffffffffffffffffff16021790555050565b600560009054906101000a900473ffffffffffffffffffffffffffffffffffffffff1681565b600033905090565b600080828401905083811015611a9d576040517f08c379a000000000000000000000000000000000000000000000000000000000815260040180806020018281038252601b8152602001807f536166654d6174683a206164646974696f6e206f766572666c6f77000000000081525060200191505060405180910390fd5b8091505092915050565b600082821115611b1f576040517f08c379a000000000000000000000000000000000000000000000000000000000815260040180806020018281038252601e8152602001807f536166654d6174683a207375627472616374696f6e206f766572666c6f77000081525060200191505060405180910390fd5b600082840390508091505092915050565b600081359050611b3f816124e4565b92915050565b600081519050611b54816124fb565b92915050565b600081359050611b6981612512565b92915050565b600081359050611b7e81612529565b92915050565b600081519050611b9381612529565b92915050565b600060208284031215611bab57600080fd5b6000611bb984828501611b30565b91505092915050565b600060208284031215611bd457600080fd5b6000611be284828501611b45565b91505092915050565b60008060008060808587031215611c0157600080fd5b6000611c0f87828801611b5a565b9450506020611c2087828801611b5a565b9350506040611c3187828801611b6f565b9250506060611c4287828801611b6f565b91505092959194509250565b600060208284031215611c6057600080fd5b6000611c6e84828501611b6f565b91505092915050565b600060208284031215611c8957600080fd5b6000611c9784828501611b84565b91505092915050565b60008060408385031215611cb357600080fd5b6000611cc185828601611b6f565b9250506020611cd285828601611b6f565b9150509250929050565b611ce58161248a565b82525050565b611cf481612438565b82525050565b611d038161244a565b82525050565b611d1281612456565b82525050565b611d218161249c565b82525050565b6000611d34601f83612427565b91507f43616e6e6e6f742066756e64206d6f7265207468616e20796f752068617665006000830152602082019050919050565b6000611d74602b83612427565b91507f43616e6e6f74207769746864726177206d6f7265207468616e2075736564206960008301527f6e2070726f706f73616c730000000000000000000000000000000000000000006020830152604082019050919050565b6000611dda601983612427565b91507f4e6f2066756e6473207261697365642062792073656e646572000000000000006000830152602082019050919050565b6000611e1a602283612427565b91507f4e6f7420656e6f7567682066756e647320696e2066756e64696e67207269676860008301527f74730000000000000000000000000000000000000000000000000000000000006020830152604082019050919050565b6000611e80601b83612427565b91507f7261697365642066756e6473207761732073756666696369656e7400000000006000830152602082019050919050565b6000611ec0601d83612427565b91507f66756e6472616973696e672068617320656e64656420616c72656164790000006000830152602082019050919050565b6000611f00602183612427565b91507f66756e64732068617665206265656e2077697468647261776e20616c7265616460008301527f79000000000000000000000000000000000000000000000000000000000000006020830152604082019050919050565b6000611f66602383612427565b91507f43616e6e6f742066756e642073656c662d67656e6572617465642070726f706f60008301527f73616c00000000000000000000000000000000000000000000000000000000006020830152604082019050919050565b6000611fcc602483612427565b91507f7261697365642066756e647320646f206e6f74206d656574207265717569726560008301527f6d656e74000000000000000000000000000000000000000000000000000000006020830152604082019050919050565b6000612032602a83612427565b91507f5468697320636f6e747261637420616464726573732069732070726f6869626960008301527f74656420746f20757365000000000000000000000000000000000000000000006020830152604082019050919050565b6000612098601d83612427565b91507f66756e6472616973696e6720686173206e6f7420656e646564207965740000006000830152602082019050919050565b6120d481612480565b82525050565b60006020820190506120ef6000830184611ceb565b92915050565b600060208201905061210a6000830184611cdc565b92915050565b60006060820190506121256000830186611cdc565b6121326020830185611ceb565b61213f60408301846120cb565b949350505050565b600060408201905061215c6000830185611cdc565b61216960208301846120cb565b9392505050565b60006040820190506121856000830185611ceb565b61219260208301846120cb565b9392505050565b60006020820190506121ae6000830184611cfa565b92915050565b600060e0820190506121c9600083018a611d09565b6121d66020830189611d09565b6121e360408301886120cb565b6121f060608301876120cb565b6121fd60808301866120cb565b61220a60a0830185611cfa565b61221760c0830184611cfa565b98975050505050505050565b60006080820190506122386000830187611d09565b61224560208301866120cb565b61225260408301856120cb565b61225f60608301846120cb565b95945050505050565b600060208201905061227d6000830184611d18565b92915050565b6000602082019050818103600083015261229c81611d27565b9050919050565b600060208201905081810360008301526122bc81611d67565b9050919050565b600060208201905081810360008301526122dc81611dcd565b9050919050565b600060208201905081810360008301526122fc81611e0d565b9050919050565b6000602082019050818103600083015261231c81611e73565b9050919050565b6000602082019050818103600083015261233c81611eb3565b9050919050565b6000602082019050818103600083015261235c81611ef3565b9050919050565b6000602082019050818103600083015261237c81611f59565b9050919050565b6000602082019050818103600083015261239c81611fbf565b9050919050565b600060208201905081810360008301526123bc81612025565b9050919050565b600060208201905081810360008301526123dc8161208b565b9050919050565b60006020820190506123f860008301846120cb565b92915050565b600060408201905061241360008301856120cb565b61242060208301846120cb565b9392505050565b600082825260208201905092915050565b600061244382612460565b9050919050565b60008115159050919050565b6000819050919050565b600073ffffffffffffffffffffffffffffffffffffffff82169050919050565b6000819050919050565b6000612495826124c0565b9050919050565b60006124a7826124ae565b9050919050565b60006124b982612460565b9050919050565b60006124cb826124d2565b9050919050565b60006124dd82612460565b9050919050565b6124ed81612438565b81146124f857600080fd5b50565b6125048161244a565b811461250f57600080fd5b50565b61251b81612456565b811461252657600080fd5b50565b61253281612480565b811461253d57600080fd5b5056fe4f776e61626c653a206e6577206f776e657220697320746865207a65726f2061646472657373a2646970667358221220f4c8fcabdbbe8ada1519a42bd7358f0b5b7adaa2664eed50685a7ebafca186de64736f6c63430007060033",
  "immutableReferences": {},
  "source": "// SPDX-License-Identifier: UNLICENSED \n\npragma solidity >=0.6.2 <0.8.0;\npragma experimental ABIEncoderV2; \n\nimport \"./utils/Address.sol\";\nimport \"./utils/SafeMath.sol\";\nimport \"./access/Ownable.sol\";\nimport \"./interfaces/IERC20.sol\";\n\ncontract HagoromoV1 is Ownable {\n    using Address for address;\n    using SafeMath for uint;\n\n    // events\n    event _ProposalInitialized(bytes32 description, uint endDate, uint requiredFund, uint propNonce, address indexed creator);\n    event _FundingRightsGranted(uint numTokens, address indexed fundRaiser);\n    event _FundingRightsWithdrawn(uint numTokens, address indexed fundRaiser);\n    event _FundRaising(uint propNonce, uint numTokens, address indexed fundRaiser);\n    event _TokensWithdrawn(uint propNonce, address indexed creator);\n    event _TokensRescued(uint propNonce, address indexed fundRaiser);\n\n    // storage\n    struct proposal {\n        bytes32 description; // short description (up to 32 bytes)\n        bytes32 url; // url for the project (up to 32 bytes)\n        address beneficiary; // beneficiary address who creates a proposal\n        uint endDate; // expiration date of the proposal\n        uint raisedFund; // the total raised funds\n        uint requiredFund; // target amount of this proposal\n        bool status; // status if the requiredFund is pass\n        bool transferred; // if raisedFund was transferred\n    }\n\n    // declares variables\n    uint constant private INITIAL_PROPOSAL_NONCE = 0; // initial proposal nonce number\n    uint private propNonce; // increasing proposal nonce number\n\n    mapping(uint => proposal) private _propMap; // maps propNonce to proposal struct\n    mapping(address => uint) private _propTokenBalance; // maps user's address to tokenBalance\n    mapping(uint => mapping(address => uint)) private _pendingFunds; // maps pending Funds\n\n    IERC20 public token; // we use JPYC for Hagoromo application as of now\n\n    /**\n     * @notice Initializer. This can only be called once.\n     * @param _token The address where the ERC20 token contract is deployed.\n     */\n    function init(address _token) external onlyOwner { // this function can be a constructor??\n        require(_token != address(0) && address(token) == address(0), \"This contract address is prohibited to use\");\n        token = IERC20(_token);\n        propNonce = INITIAL_PROPOSAL_NONCE;\n    }\n\n    // getter functions\n    function pendingFund(uint _propNonce) external view returns (uint) {\n        return _pendingFunds[_propNonce][msg.sender];\n    }\n\n    function tokenBalance() external view returns (uint) {\n        return _propTokenBalance[msg.sender];\n    }\n\n    function getProposal(uint _propNonce) external view returns(\n        bytes32,\n        bytes32,\n        uint,\n        uint,\n        uint,\n        bool,\n        bool)\n    {\n        proposal storage p = _propMap[_propNonce];\n        return (\n            p.description,\n            p.url,\n            p.endDate,\n            p.raisedFund,\n            p.requiredFund,\n            p.status,\n            p.transferred\n        );\n    }\n\n    // token interface\n    /**\n     * @notice TransferFrom _numTokens ERC20 tokens to the app contract, granting funds\n     * @dev Assumes that msg.sender has approved the app contract to spend on their behalf\n     * @param _numTokens The number of funds tokens desired in exchange for ERC20 tokens\n     */\n    function requestFundingRights(uint _numTokens) external returns (bool) {\n        require(token.balanceOf(msg.sender) >= _numTokens, \"Cannnot fund more than you have\");\n        _propTokenBalance[msg.sender] = _propTokenBalance[msg.sender].add(_numTokens);\n\n        // Transfer tokens to the app contract\n        // A user must approve tokens to the contract in advance token.approve\n        require(token.transferFrom(msg.sender, address(this), _numTokens));\n        emit _FundingRightsGranted(_numTokens, msg.sender);\n\n        return true;\n    }\n\n    /**\n     * @notice Withdraw _numTokens ERC20 tokens from the app contract, revoking funds\n     * @dev Assume that the contract itself has had enough eth to call transfer function\n     * @param _numTokens The number of ERC20 tokens desired in the contract for ERC20 tokens\n     */\n    function withdrawFundingRights(uint _numTokens) external returns (bool) {\n        // withdraw tokens only not locked should be available\n        require(_propTokenBalance[msg.sender] >= _numTokens, \"Cannot withdraw more than used in proposals\");\n        _propTokenBalance[msg.sender] = _propTokenBalance[msg.sender].sub(_numTokens);\n\n        // Transfer tokens to the sender address\n        // this contract must be able to send the tokens that are not used to the sender\n        require(token.transfer(msg.sender, _numTokens));\n        emit _FundingRightsWithdrawn(_numTokens, msg.sender);\n\n        return true;\n    }\n\n    /**\n     * @notice Withdraw funded ERC20 tokens from the contract if the proposal has ended\n     * @dev Assure that the proposal has ended and the funds reached the requirement\n     * @param _propNonce Integer of the target proposal that has been ended\n     */\n    function withdrawTokens(uint _propNonce) external returns (bool) {\n        // this function can be called from non beneficiary address\n        proposal storage p = _propMap[_propNonce];\n\n        require(isExpired(p.endDate), \"fundraising has not ended yet\");\n        require(p.status == true, \"raised funds do not meet requirement\");\n\n        // Withdraw tokens to the beneficiary address\n        require(p.transferred == false, \"funds have been withdrawn already\");\n        require(token.transfer(p.beneficiary, p.raisedFund));\n        p.transferred = true;\n        p.raisedFund = 0;\n\n        // set zero all elements in p.pendingFunds mapping if possible, how?\n        // or can we keep that funding status for tracking purpose with the proposal?\n        emit _TokensWithdrawn(_propNonce, msg.sender);\n\n        return true;\n    }\n\n    /**\n     * @notice Withdraw funds ERC20 tokens from the proposal to the funding rights\n     * @dev Assure that the proposal has ended and the funds did not reach the requirement\n     * @param _propNonce Integer of the target proposal that has been ended\n     */\n    function rescueTokens(uint _propNonce) external returns (bool) {\n        // this function must be called from each fundraiser to withdraw\n        proposal storage p = _propMap[_propNonce];\n\n        require(isExpired(p.endDate), \"fundraising has not ended yet\");\n        require(p.status == false, \"raised funds was sufficient\");\n        // Revert the call if msg.sender did not fund anything on this proposal\n        require(_pendingFunds[_propNonce][msg.sender] > 0, \"No funds raised by sender\");\n\n        // Withdraw ERC20 tokens from the proposal to the funding rights\n        _propTokenBalance[msg.sender] = _propTokenBalance[msg.sender].add(_pendingFunds[_propNonce][msg.sender]);\n        p.raisedFund = p.raisedFund.sub(_pendingFunds[_propNonce][msg.sender]);\n        _pendingFunds[_propNonce][msg.sender] = 0;\n\n        emit _TokensRescued(_propNonce, msg.sender);\n\n        return true;\n    }\n\n    // funding interface\n    /**\n     * @notice Transfer funds ERC20 tokens from the funding rights to the proposal\n     * @dev Assure that the proposal has not ended and sender has enough funding rights\n     * @param _propNonce Integer of the target proposal that has been ended\n     * @param _funding Integer of the funding that the sender transfers\n     */\n    function fundRaising(uint _propNonce, uint _funding) external returns (bool) {\n        proposal storage p = _propMap[_propNonce];\n\n        // Revert the call if the fundraising period is over\n        require(!isExpired(p.endDate), \"fundraising has ended already\");\n        require(p.beneficiary != msg.sender, \"Cannot fund self-generated proposal\");\n        require(_propTokenBalance[msg.sender] >= _funding, \"Not enough funds in funding rights\");\n\n        // raise funds, and substract the raised tokens from propTokenBalance\n        p.raisedFund = p.raisedFund.add(_funding);\n        _propTokenBalance[msg.sender] = _propTokenBalance[msg.sender].sub(_funding);\n        _pendingFunds[_propNonce][msg.sender] = _pendingFunds[_propNonce][msg.sender].add(_funding);\n\n        // set status true if raised fund reaches the requirement\n        if (p.raisedFund >= p.requiredFund) {\n            p.status = true;\n        }\n\n        emit _FundRaising(_propNonce, _funding, msg.sender);\n        return true;\n    }\n\n    /**\n     * @dev Initiates a proposal with canonical configured parameters at propNonce\n     * @param _description String of description of the proposal\n     * @param _url String of the proposal url that explains the project\n     * @param _duration Length of duration in seconds in addition to block.timestamp\n     * @param _requiredFund Integer of the required funds for the proposal\n     */\n    function initializeProposal(bytes32 _description, bytes32 _url, uint _duration, uint _requiredFund) public returns (uint) {\n        propNonce = propNonce.add(1);\n        address _beneficiary = msg.sender;\n        uint _endDate = block.timestamp.add(_duration);\n\n        _propMap[propNonce] = proposal({\n            description: _description,\n            url: _url,\n            beneficiary: _beneficiary,\n            endDate: _endDate,\n            raisedFund: 0,\n            requiredFund: _requiredFund,\n            status: false,\n            transferred: false\n        });\n\n        emit _ProposalInitialized(_description, _endDate, _requiredFund, propNonce, msg.sender);\n        return propNonce;\n    }\n\n    // helper functions\n    /**\n     * @dev Checks if an expiration date has been reached\n     * @param _endDate Integer timestamp date to compare current timestamp with\n     * @return expired Boolean indication of whether the terminationDate has passed\n     */\n    function isExpired(uint _endDate) public view returns (bool expired) {\n        return (block.timestamp >= _endDate);\n    }\n\nfunction getPropNonce() external view returns (uint) {\nreturn propNonce;\n}\n\n}\n",
  "sourcePath": "/Users/macbook/Desktop/crypto/hagoromo/contracts/HagoromoV1.sol",
  "compiler": {
    "name": "solc",
    "version": "0.7.6+commit.7338295f.Emscripten.clang"
  },
  "schemaVersion": "3.3.4",
  "updatedAt": "2021-04-03T18:57:48.809Z",
  "networkType": "ethereum",
  "devdoc": {
    "kind": "dev",
    "methods": {
      "fundRaising(uint256,uint256)": {
        "details": "Assure that the proposal has not ended and sender has enough funding rights",
        "params": {
          "_funding": "Integer of the funding that the sender transfers",
          "_propNonce": "Integer of the target proposal that has been ended"
        }
      },
      "init(address)": {
        "params": {
          "_token": "The address where the ERC20 token contract is deployed."
        }
      },
      "initializeProposal(bytes32,bytes32,uint256,uint256)": {
        "details": "Initiates a proposal with canonical configured parameters at propNonce",
        "params": {
          "_description": "String of description of the proposal",
          "_duration": "Length of duration in seconds in addition to block.timestamp",
          "_requiredFund": "Integer of the required funds for the proposal",
          "_url": "String of the proposal url that explains the project"
        }
      },
      "isExpired(uint256)": {
        "details": "Checks if an expiration date has been reached",
        "params": {
          "_endDate": "Integer timestamp date to compare current timestamp with"
        },
        "returns": {
          "expired": "Boolean indication of whether the terminationDate has passed"
        }
      },
      "owner()": {
        "details": "Returns the address of the current owner."
      },
      "renounceOwnership()": {
        "details": "Leaves the contract without owner. It will not be possible to call `onlyOwner` functions anymore. Can only be called by the current owner. NOTE: Renouncing ownership will leave the contract without an owner, thereby removing any functionality that is only available to the owner."
      },
      "requestFundingRights(uint256)": {
        "details": "Assumes that msg.sender has approved the app contract to spend on their behalf",
        "params": {
          "_numTokens": "The number of funds tokens desired in exchange for ERC20 tokens"
        }
      },
      "rescueTokens(uint256)": {
        "details": "Assure that the proposal has ended and the funds did not reach the requirement",
        "params": {
          "_propNonce": "Integer of the target proposal that has been ended"
        }
      },
      "transferOwnership(address)": {
        "details": "Transfers ownership of the contract to a new account (`newOwner`). Can only be called by the current owner."
      },
      "withdrawFundingRights(uint256)": {
        "details": "Assume that the contract itself has had enough eth to call transfer function",
        "params": {
          "_numTokens": "The number of ERC20 tokens desired in the contract for ERC20 tokens"
        }
      },
      "withdrawTokens(uint256)": {
        "details": "Assure that the proposal has ended and the funds reached the requirement",
        "params": {
          "_propNonce": "Integer of the target proposal that has been ended"
        }
      }
    },
    "version": 1
  },
  "userdoc": {
    "kind": "user",
    "methods": {
      "fundRaising(uint256,uint256)": {
        "notice": "Transfer funds ERC20 tokens from the funding rights to the proposal"
      },
      "init(address)": {
        "notice": "Initializer. This can only be called once."
      },
      "requestFundingRights(uint256)": {
        "notice": "TransferFrom _numTokens ERC20 tokens to the app contract, granting funds"
      },
      "rescueTokens(uint256)": {
        "notice": "Withdraw funds ERC20 tokens from the proposal to the funding rights"
      },
      "withdrawFundingRights(uint256)": {
        "notice": "Withdraw _numTokens ERC20 tokens from the app contract, revoking funds"
      },
      "withdrawTokens(uint256)": {
        "notice": "Withdraw funded ERC20 tokens from the contract if the proposal has ended"
      }
    },
    "version": 1
  }
}